:1000000008000500080805000800050008080500AC
:10001000080D04000200020F020D020D020F020E75
:100020000200020E020F020F020F020E020E020E5B
:10003000020F02010201020E020102040200020488
:10004000020F02000201020F02010201020F020F61
:10005000020E090D080104000208020E0201020A44
:100060000201020E02010901080104000205020357
:10007000020E0208020202020204020E0202020E34
:100080000202020802020203020202030203020148
:10009000020E02020200020202020200020E02012D
:1000A000020E0202020102010901080E0400020808
:1000B00002080209020E020E090E080004000209DD
:1000C0000208020C020C020C0208020B020C0208CD
:1000D000020802090208020C020C020C02080200CB
:1000E00002010209020102090201020902090208D1
:1000F000020E020002090208020D0206020D0900AA
