:1000000000000000000000000400000008000000E4
:100010000F0F00000C0C060E0E06020F040E0A0154
:100020000C090A0E0601020106090205060F020567
:1000300006070C0A0C090A0F0C0E0E060E060F0816
:100040000A0C0E060C090A070C0C0F00070E060E10
:100050000A0E0F0F0003000004000D0500030F003F
:100060000A040D030A090004000400000E06020041
:100070000D090E01080B080B0E040D0D0A0C0D0CDA
:100080000F080F080A0602000E01020106000A040A
:100090000D09080B060204080A0700000D0B0A0BE5
:1000A0000D0A0B0B0E040C08000B0F0800000F00CC
:1000B0000D030D020A0A0B0A0F0808000000020FC8
:1000C00002060D040D060D030A040E040D020F08AE
:1000D0000609070E02050D040D060D010A0E0E029B
:1000E0000F08030E0E02070E0F00040E040D0A0D7A
:1000F0000E060E02060D0A010F0F070F0F0808006B
